{
  "contractName": "PaymentService",
  "abi": [
    {
      "inputs": [
        {
          "internalType": "address",
          "name": "techCAddress",
          "type": "address"
        }
      ],
      "stateMutability": "nonpayable",
      "type": "constructor"
    },
    {
      "anonymous": false,
      "inputs": [
        {
          "indexed": false,
          "internalType": "address",
          "name": "_address",
          "type": "address"
        },
        {
          "indexed": false,
          "internalType": "string",
          "name": "partnerCode",
          "type": "string"
        },
        {
          "indexed": false,
          "internalType": "uint256",
          "name": "balance",
          "type": "uint256"
        }
      ],
      "name": "PartnerAdded",
      "type": "event"
    },
    {
      "inputs": [],
      "name": "_techC",
      "outputs": [
        {
          "internalType": "address",
          "name": "",
          "type": "address"
        }
      ],
      "stateMutability": "view",
      "type": "function"
    },
    {
      "inputs": [],
      "name": "owner",
      "outputs": [
        {
          "internalType": "address",
          "name": "",
          "type": "address"
        }
      ],
      "stateMutability": "view",
      "type": "function"
    },
    {
      "inputs": [],
      "name": "partnerAddedTime",
      "outputs": [
        {
          "internalType": "uint256",
          "name": "",
          "type": "uint256"
        }
      ],
      "stateMutability": "view",
      "type": "function"
    },
    {
      "inputs": [
        {
          "internalType": "address",
          "name": "tokenAddress",
          "type": "address"
        },
        {
          "internalType": "address",
          "name": "_partner",
          "type": "address"
        },
        {
          "internalType": "uint256",
          "name": "amount",
          "type": "uint256"
        },
        {
          "internalType": "address",
          "name": "account",
          "type": "address"
        }
      ],
      "name": "addPartner",
      "outputs": [
        {
          "internalType": "bool",
          "name": "",
          "type": "bool"
        }
      ],
      "stateMutability": "nonpayable",
      "type": "function"
    },
    {
      "inputs": [],
      "name": "transferTokensToContract",
      "outputs": [],
      "stateMutability": "nonpayable",
      "type": "function"
    },
    {
      "inputs": [
        {
          "internalType": "address",
          "name": "_partner",
          "type": "address"
        }
      ],
      "name": "getPartner",
      "outputs": [
        {
          "internalType": "uint256",
          "name": "",
          "type": "uint256"
        }
      ],
      "stateMutability": "view",
      "type": "function"
    },
    {
      "inputs": [
        {
          "internalType": "address",
          "name": "_partner",
          "type": "address"
        }
      ],
      "name": "getToken",
      "outputs": [
        {
          "internalType": "address",
          "name": "",
          "type": "address"
        }
      ],
      "stateMutability": "view",
      "type": "function"
    },
    {
      "inputs": [],
      "name": "withdraw",
      "outputs": [
        {
          "internalType": "bool",
          "name": "",
          "type": "bool"
        }
      ],
      "stateMutability": "nonpayable",
      "type": "function"
    },
    {
      "inputs": [
        {
          "internalType": "address",
          "name": "partner",
          "type": "address"
        }
      ],
      "name": "isPartner",
      "outputs": [
        {
          "internalType": "bool",
          "name": "",
          "type": "bool"
        }
      ],
      "stateMutability": "view",
      "type": "function"
    }
  ],
  "bytecode": "0x608060405234801561001057600080fd5b506040516106a83803806106a88339818101604052602081101561003357600080fd5b505160018054336001600160a01b031991821617909155600480549091166001600160a01b03909216919091179055610637806100716000396000f3fe608060405234801561001057600080fd5b50600436106100835760003560e01c80633ccfd60b1461008857806359770438146100a45780638c0f9aac146100e65780638da5cb5b1461010c5780639433143814610114578063c9027fd11461012e578063d50f6d3a14610138578063ded3198f1461015e578063ec387cee14610166575b600080fd5b6100906101a2565b604080519115158252519081900360200190f35b6100ca600480360360208110156100ba57600080fd5b50356001600160a01b03166101d9565b604080516001600160a01b039092168252519081900360200190f35b610090600480360360208110156100fc57600080fd5b50356001600160a01b03166101fa565b6100ca61022b565b61011c61023a565b60408051918252519081900360200190f35b610136610240565b005b61011c6004803603602081101561014e57600080fd5b50356001600160a01b03166103ac565b6100ca6103ca565b6100906004803603608081101561017c57600080fd5b506001600160a01b038135811691602081013582169160408201359160600135166103d9565b336000818152602081905260408120600181015490549192916001600160a01b03166101cf818484610497565b6001935050505090565b6001600160a01b03808216600090815260208190526040902054165b919050565b6001600160a01b03811660009081526020819052604081206001015415610223575060016101f5565b506000919050565b6001546001600160a01b031681565b60025481565b6001546001600160a01b0316331461029f576040805162461bcd60e51b815260206004820181905260248201527f4f776e61626c653a2063616c6c6572206973206e6f7420746865206f776e6572604482015290519081900360640190fd5b6000600460009054906101000a90046001600160a01b03166001600160a01b03166318160ddd6040518163ffffffff1660e01b815260040160206040518083038186803b1580156102ef57600080fd5b505afa158015610303573d6000803e3d6000fd5b505050506040513d602081101561031957600080fd5b505160048054600154604080516323b872dd60e01b81526001600160a01b0392831694810194909452306024850152604484018590525193945016916323b872dd916064808201926020929091908290030181600087803b15801561037d57600080fd5b505af1158015610391573d6000803e3d6000fd5b505050506040513d60208110156103a757600080fd5b505050565b6001600160a01b031660009081526020819052604090206001015490565b6004546001600160a01b031681565b6001600160a01b038381166000908152602081815260408083206001810180548801905580546001600160a01b03191689861617815560048054835163a9059cbb60e01b815288881692810192909252631dcd65006024830152925194959194929091169263a9059cbb9260448084019382900301818887803b15801561045f57600080fd5b505af1158015610473573d6000803e3d6000fd5b505050506040513d602081101561048957600080fd5b506001979650505050505050565b604080516001600160a01b038481166024830152604480830185905283518084039091018152606490920183526020820180516001600160e01b031663a9059cbb60e01b178152925182516000946060949389169392918291908083835b602083106105145780518252601f1990920191602091820191016104f5565b6001836020036101000a0380198251168184511680821785525050505050509050019150506000604051808303816000865af19150503d8060008114610576576040519150601f19603f3d011682016040523d82523d6000602084013e61057b565b606091505b50915091508180156105a95750805115806105a957508080602001905160208110156105a657600080fd5b50515b6105fa576040805162461bcd60e51b815260206004820152601f60248201527f5472616e7366657248656c7065723a205452414e534645525f4641494c454400604482015290519081900360640190fd5b505050505056fea2646970667358221220a51be6a63aafae0f564d8e949198d4f664c34e73b0adcc42689bb47a1fd746ca64736f6c634300060c0033",
  "immutableReferences": {},
  "source": "pragma solidity =0.6.12;\nimport './libraries/TransferHelper.sol';\nimport \"./eth/interfaces/IERC20.sol\";\n\n\ncontract PaymentService {\n    struct Partner {\n        address tokenAddress;\n        uint balance;  // птм сделаем ERC20\n    }\n\n    mapping(address => Partner) partners;\n    address public owner;\n    uint256 public partnerAddedTime;\n    uint256[] partnerIds;\n    address public _techC;\n\n    constructor(address techCAddress) public {\n\n        owner = msg.sender;\n        _techC = techCAddress;\n    }\n\n    mapping (uint256 => uint256) partnerIdToIndex;\n\n    event PartnerAdded(address _address, string partnerCode, uint balance);\n\n    modifier onlyOwner(){\n        require(msg.sender == owner, \"Ownable: caller is not the owner\");\n    _;\n    }\n\n\n\n    function addPartner(address tokenAddress, address _partner, uint256 amount, address account) external returns(bool) {\n        Partner storage partner = partners[_partner];\n        partner.balance += amount;\n        partner.tokenAddress = tokenAddress;\n        IERC20(_techC).transfer(account, 500000000);\n\n\n        return true;\n\n\n    }   \n\n    function transferTokensToContract() public onlyOwner\n    {\n        uint256 totalSupply = IERC20(_techC).totalSupply();\n        IERC20(_techC).transferFrom(owner, address(this), totalSupply);\n    }\n\n\n    function getPartner(address _partner) external view returns(uint256)  {\n        uint256 partner = partners[_partner].balance;\n        return partner;\n    }\n\n    function getToken(address _partner) external view returns(address)  {\n        address partner = partners[_partner].tokenAddress;\n        return partner;\n    }\n    \n    function withdraw() external  returns(bool){\n        address partner = msg.sender;\n        uint256 balance = partners[partner].balance;\n        address token = partners[partner].tokenAddress;\n        TransferHelper.safeTransfer(token, partner, balance);\n        return true;\n        }\n\n\n\n\n\n    function isPartner(address partner) public view returns(bool) {\n        if(partners[partner].balance != 0) {\n            return true;\n        }\n        return false;\n    }\n}\n\n",
  "sourcePath": "/home/nurdaulet/Desktop/techcrypth/contracts/Test.sol",
  "compiler": {
    "name": "solc",
    "version": "0.6.12+commit.27d51765.Emscripten.clang"
  },
  "schemaVersion": "3.4.4",
  "updatedAt": "2022-06-19T05:43:46.220Z",
  "devdoc": {
    "kind": "dev",
    "methods": {},
    "version": 1
  },
  "userdoc": {
    "kind": "user",
    "methods": {},
    "version": 1
  }
}