{
  "contractName": "TechCUniswapProvider",
  "abi": [
    {
      "inputs": [
        {
          "internalType": "address",
          "name": "_weth",
          "type": "address"
        },
        {
          "internalType": "address",
          "name": "_factory",
          "type": "address"
        },
        {
          "internalType": "address",
          "name": "_storage",
          "type": "address"
        }
      ],
      "stateMutability": "nonpayable",
      "type": "constructor"
    },
    {
      "anonymous": false,
      "inputs": [
        {
          "indexed": true,
          "internalType": "address",
          "name": "previousOwner",
          "type": "address"
        },
        {
          "indexed": true,
          "internalType": "address",
          "name": "newOwner",
          "type": "address"
        }
      ],
      "name": "OwnershipTransferred",
      "type": "event"
    },
    {
      "anonymous": false,
      "inputs": [
        {
          "indexed": false,
          "internalType": "uint256",
          "name": "amountIn",
          "type": "uint256"
        },
        {
          "indexed": false,
          "internalType": "uint256",
          "name": "amountOut",
          "type": "uint256"
        },
        {
          "indexed": false,
          "internalType": "address",
          "name": "inputToken",
          "type": "address"
        },
        {
          "indexed": false,
          "internalType": "address",
          "name": "outputToken",
          "type": "address"
        }
      ],
      "name": "TechCSwapOperation",
      "type": "event"
    },
    {
      "inputs": [],
      "name": "FEE_DENOMINATOR",
      "outputs": [
        {
          "internalType": "uint256",
          "name": "",
          "type": "uint256"
        }
      ],
      "stateMutability": "view",
      "type": "function",
      "constant": true
    },
    {
      "inputs": [],
      "name": "WETH",
      "outputs": [
        {
          "internalType": "address",
          "name": "",
          "type": "address"
        }
      ],
      "stateMutability": "view",
      "type": "function",
      "constant": true
    },
    {
      "inputs": [],
      "name": "owner",
      "outputs": [
        {
          "internalType": "address",
          "name": "",
          "type": "address"
        }
      ],
      "stateMutability": "view",
      "type": "function",
      "constant": true
    },
    {
      "inputs": [],
      "name": "payment",
      "outputs": [
        {
          "internalType": "address",
          "name": "",
          "type": "address"
        }
      ],
      "stateMutability": "view",
      "type": "function",
      "constant": true
    },
    {
      "inputs": [],
      "name": "providerFee",
      "outputs": [
        {
          "internalType": "uint256",
          "name": "",
          "type": "uint256"
        }
      ],
      "stateMutability": "view",
      "type": "function",
      "constant": true
    },
    {
      "inputs": [],
      "name": "renounceOwnership",
      "outputs": [],
      "stateMutability": "nonpayable",
      "type": "function"
    },
    {
      "inputs": [
        {
          "internalType": "address",
          "name": "newOwner",
          "type": "address"
        }
      ],
      "name": "transferOwnership",
      "outputs": [],
      "stateMutability": "nonpayable",
      "type": "function"
    },
    {
      "inputs": [],
      "name": "uniswapFactory",
      "outputs": [
        {
          "internalType": "address",
          "name": "",
          "type": "address"
        }
      ],
      "stateMutability": "view",
      "type": "function",
      "constant": true
    },
    {
      "stateMutability": "payable",
      "type": "receive",
      "payable": true
    },
    {
      "inputs": [
        {
          "internalType": "uint256",
          "name": "amountIn",
          "type": "uint256"
        },
        {
          "internalType": "uint256",
          "name": "swapAmountOutMin",
          "type": "uint256"
        },
        {
          "internalType": "address[]",
          "name": "path",
          "type": "address[]"
        },
        {
          "internalType": "address",
          "name": "to",
          "type": "address"
        },
        {
          "internalType": "uint256",
          "name": "deadline",
          "type": "uint256"
        }
      ],
      "name": "swapTokensForETHSupportingFee",
      "outputs": [],
      "stateMutability": "nonpayable",
      "type": "function"
    },
    {
      "inputs": [
        {
          "internalType": "uint256",
          "name": "amountIn",
          "type": "uint256"
        },
        {
          "internalType": "uint256",
          "name": "swapAmountOutMin",
          "type": "uint256"
        },
        {
          "internalType": "address[]",
          "name": "path",
          "type": "address[]"
        },
        {
          "internalType": "address",
          "name": "to",
          "type": "address"
        },
        {
          "internalType": "uint256",
          "name": "deadline",
          "type": "uint256"
        }
      ],
      "name": "swapTokensForTokensSupportingFee",
      "outputs": [],
      "stateMutability": "nonpayable",
      "type": "function"
    },
    {
      "inputs": [
        {
          "internalType": "uint256",
          "name": "amountOutMin",
          "type": "uint256"
        },
        {
          "internalType": "address[]",
          "name": "path",
          "type": "address[]"
        },
        {
          "internalType": "address",
          "name": "to",
          "type": "address"
        },
        {
          "internalType": "uint256",
          "name": "deadline",
          "type": "uint256"
        }
      ],
      "name": "swapETHForTokensSupportingFee",
      "outputs": [],
      "stateMutability": "payable",
      "type": "function",
      "payable": true
    },
    {
      "inputs": [
        {
          "internalType": "address",
          "name": "token",
          "type": "address"
        }
      ],
      "name": "withdraw",
      "outputs": [],
      "stateMutability": "nonpayable",
      "type": "function"
    },
    {
      "inputs": [
        {
          "internalType": "uint256",
          "name": "_fee",
          "type": "uint256"
        }
      ],
      "name": "setFee",
      "outputs": [],
      "stateMutability": "nonpayable",
      "type": "function"
    },
    {
      "inputs": [
        {
          "internalType": "address",
          "name": "_factory",
          "type": "address"
        }
      ],
      "name": "setUniswapFactory",
      "outputs": [],
      "stateMutability": "nonpayable",
      "type": "function"
    }
  ],
  "bytecode": "0x6080604052629896806004553480156200001857600080fd5b506040516200236d3803806200236d833981810160405260608110156200003e57600080fd5b508051602082015160409092015190919060006200005b620001bd565b600080546001600160a01b0319166001600160a01b0383169081178255604051929350917f8be0079c531659141344cd1fd0a4f28419497f9722a3daafe3b4186f6b6457e0908290a3506001600160a01b038316620000ec5760405162461bcd60e51b8152600401808060200182810382526027815260200180620023466027913960400191505060405180910390fd5b6001600160a01b038216620001335760405162461bcd60e51b815260040180806020018281038252602a815260200180620022f3602a913960400191505060405180910390fd5b6001600160a01b0381166200017a5760405162461bcd60e51b81526004018080602001828103825260298152602001806200231d6029913960400191505060405180910390fd5b600180546001600160a01b039485166001600160a01b031991821617909155600280549385169382169390931790925560038054919093169116179055620001c1565b3390565b61212280620001d16000396000f3fe6080604052600436106100b15760003560e01c806317c9bfc6146100bd57806342f6487a1461015557806351cff8d91461018657806369fe0e2d146101b9578063715018a6146101e35780638bdb2afa146101f85780638da5cb5b1461020d57806393f7566114610222578063ad5c4648146102b8578063c21a6457146102cd578063c6e983d914610351578063d73792a914610378578063e04b677f1461038d578063f2fde38b146103c0576100b8565b366100b857005b600080fd5b3480156100c957600080fd5b50610153600480360360a08110156100e057600080fd5b813591602081013591810190606081016040820135600160201b81111561010657600080fd5b82018360208201111561011857600080fd5b803590602001918460208302840111600160201b8311171561013957600080fd5b91935091506001600160a01b0381351690602001356103f3565b005b34801561016157600080fd5b5061016a6105a8565b604080516001600160a01b039092168252519081900360200190f35b34801561019257600080fd5b50610153600480360360208110156101a957600080fd5b50356001600160a01b03166105b7565b3480156101c557600080fd5b50610153600480360360208110156101dc57600080fd5b50356107ab565b3480156101ef57600080fd5b50610153610808565b34801561020457600080fd5b5061016a610898565b34801561021957600080fd5b5061016a6108a7565b34801561022e57600080fd5b50610153600480360360a081101561024557600080fd5b813591602081013591810190606081016040820135600160201b81111561026b57600080fd5b82018360208201111561027d57600080fd5b803590602001918460208302840111600160201b8311171561029e57600080fd5b91935091506001600160a01b0381351690602001356108b6565b3480156102c457600080fd5b5061016a610a15565b610153600480360360808110156102e357600080fd5b81359190810190604081016020820135600160201b81111561030457600080fd5b82018360208201111561031657600080fd5b803590602001918460208302840111600160201b8311171561033757600080fd5b91935091506001600160a01b038135169060200135610a24565b34801561035d57600080fd5b50610366610bb6565b60408051918252519081900360200190f35b34801561038457600080fd5b50610366610bbc565b34801561039957600080fd5b50610153600480360360208110156103b057600080fd5b50356001600160a01b0316610bc5565b3480156103cc57600080fd5b50610153600480360360208110156103e357600080fd5b50356001600160a01b0316610c3f565b80428110156104335760405162461bcd60e51b8152600401808060200182810382526026815260200180611f286026913960400191505060405180910390fd5b600061044188888888610d25565b905060008051602061201583398151915288828888600081811061046157fe5b905060200201356001600160a01b03168989600181811061047e57fe5b604080519687526020878101969096526001600160a01b03948516878201529402919091013591909116606084015250519081900360800190a16104ec868660001981018181106104cb57fe5b6003546001600160a01b036020909202939093013581169216905083610f6f565b6003546001600160a01b031663ec387cee8787600019810181811061050d57fe5b604080516001600160e01b031960e087901b1681526001600160a01b036020938402959095013585166004820152938a166024850152604484018790523360648501525160848085019492935090918290030181600087803b15801561057257600080fd5b505af1158015610586573d6000803e3d6000fd5b505050506040513d602081101561059c57600080fd5b50505050505050505050565b6003546001600160a01b031681565b6105bf6110d9565b6000546001600160a01b0390811691161461060f576040805162461bcd60e51b81526020600482018190526024820152600080516020611fa6833981519152604482015290519081900360640190fd5b6001546001600160a01b0382811691161415610725576000816001600160a01b03166370a08231306040518263ffffffff1660e01b815260040180826001600160a01b0316815260200191505060206040518083038186803b15801561067457600080fd5b505afa158015610688573d6000803e3d6000fd5b505050506040513d602081101561069e57600080fd5b50519050801561070e5760015460408051632e1a7d4d60e01b81526004810184905290516001600160a01b0390921691632e1a7d4d9160248082019260009290919082900301818387803b1580156106f557600080fd5b505af1158015610709573d6000803e3d6000fd5b505050505b61071f6107196108a7565b476110dd565b506107a8565b6107a8816107316108a7565b604080516370a0823160e01b815230600482015290516001600160a01b038616916370a08231916024808301926020929190829003018186803b15801561077757600080fd5b505afa15801561078b573d6000803e3d6000fd5b505050506040513d60208110156107a157600080fd5b5051610f6f565b50565b6107b36110d9565b6000546001600160a01b03908116911614610803576040805162461bcd60e51b81526020600482018190526024820152600080516020611fa6833981519152604482015290519081900360640190fd5b600455565b6108106110d9565b6000546001600160a01b03908116911614610860576040805162461bcd60e51b81526020600482018190526024820152600080516020611fa6833981519152604482015290519081900360640190fd5b600080546040516001600160a01b0390911690600080516020611fc6833981519152908390a3600080546001600160a01b0319169055565b6002546001600160a01b031681565b6000546001600160a01b031690565b80428110156108f65760405162461bcd60e51b8152600401808060200182810382526026815260200180611f286026913960400191505060405180910390fd5b6000610904888888886111d5565b60015460408051632e1a7d4d60e01b81526004810184905290519293506001600160a01b0390911691632e1a7d4d9160248082019260009290919082900301818387803b15801561095457600080fd5b505af1158015610968573d6000803e3d6000fd5b5050505060008051602061201583398151915288828888600081811061098a57fe5b905060200201356001600160a01b0316898960018181106109a757fe5b604080519687526020878101969096526001600160a01b03948516878201529402919091013591909116606084015250519081900360800190a16003546109f7906001600160a01b0316826110dd565b6003546001600160a01b031663ec387cee8787600181811061050d57fe5b6001546001600160a01b031681565b8042811015610a645760405162461bcd60e51b8152600401808060200182810382526026815260200180611f286026913960400191505060405180910390fd5b6000610a71878787611364565b9050600080516020612015833981519152348288886000818110610a9157fe5b905060200201356001600160a01b031689896001818110610aae57fe5b604080519687526020878101969096526001600160a01b03948516878201529402919091013591909116606084015250519081900360800190a1610afb868660001981018181106104cb57fe5b6003546001600160a01b031663ec387cee87876000198101818110610b1c57fe5b604080516001600160e01b031960e087901b1681526001600160a01b036020938402959095013585166004820152938a166024850152604484018790523360648501525160848085019492935090918290030181600087803b158015610b8157600080fd5b505af1158015610b95573d6000803e3d6000fd5b505050506040513d6020811015610bab57600080fd5b505050505050505050565b60045481565b6402540be40081565b610bcd6110d9565b6000546001600160a01b03908116911614610c1d576040805162461bcd60e51b81526020600482018190526024820152600080516020611fa6833981519152604482015290519081900360640190fd5b600280546001600160a01b0319166001600160a01b0392909216919091179055565b610c476110d9565b6000546001600160a01b03908116911614610c97576040805162461bcd60e51b81526020600482018190526024820152600080516020611fa6833981519152604482015290519081900360640190fd5b6001600160a01b038116610cdc5760405162461bcd60e51b8152600401808060200182810382526026815260200180611edd6026913960400191505060405180910390fd5b600080546040516001600160a01b0380851693921691600080516020611fc683398151915291a3600080546001600160a01b0319166001600160a01b0392909216919091179055565b6000610da683836000818110610d3757fe5b905060200201356001600160a01b031633610da0600260009054906101000a90046001600160a01b031687876000818110610d6e57fe5b905060200201356001600160a01b031688886001818110610d8b57fe5b905060200201356001600160a01b031661164a565b88611705565b600083836000198101818110610db857fe5b905060200201356001600160a01b03166001600160a01b03166370a08231306040518263ffffffff1660e01b815260040180826001600160a01b0316815260200191505060206040518083038186803b158015610e1457600080fd5b505afa158015610e28573d6000803e3d6000fd5b505050506040513d6020811015610e3e57600080fd5b50516040805160208681028281018201909352868252929350610e80929091879187918291850190849080828437600092019190915250309250611862915050565b6000610f248286866000198101818110610e9657fe5b905060200201356001600160a01b03166001600160a01b03166370a08231306040518263ffffffff1660e01b815260040180826001600160a01b0316815260200191505060206040518083038186803b158015610ef257600080fd5b505afa158015610f06573d6000803e3d6000fd5b505050506040513d6020811015610f1c57600080fd5b505190611c1e565b905085811015610f655760405162461bcd60e51b8152600401808060200182810382526030815260200180611f766030913960400191505060405180910390fd5b9695505050505050565b604080516001600160a01b038481166024830152604480830185905283518084039091018152606490920183526020820180516001600160e01b031663a9059cbb60e01b178152925182516000946060949389169392918291908083835b60208310610fec5780518252601f199092019160209182019101610fcd565b6001836020036101000a0380198251168184511680821785525050505050509050019150506000604051808303816000865af19150503d806000811461104e576040519150601f19603f3d011682016040523d82523d6000602084013e611053565b606091505b5091509150818015611081575080511580611081575080806020019051602081101561107e57600080fd5b50515b6110d2576040805162461bcd60e51b815260206004820152601f60248201527f5472616e7366657248656c7065723a205452414e534645525f4641494c454400604482015290519081900360640190fd5b5050505050565b3390565b604080516000808252602082019092526001600160a01b0384169083906040518082805190602001908083835b602083106111295780518252601f19909201916020918201910161110a565b6001836020036101000a03801982511681845116808217855250505050505090500191505060006040518083038185875af1925050503d806000811461118b576040519150601f19603f3d011682016040523d82523d6000602084013e611190565b606091505b50509050806111d05760405162461bcd60e51b81526004018080602001828103825260238152602001806120356023913960400191505060405180910390fd5b505050565b6001546000906001600160a01b0316838360001981018181106111f457fe5b905060200201356001600160a01b03166001600160a01b0316146112495760405162461bcd60e51b81526004018080602001828103825260228152602001806120586022913960400191505060405180910390fd5b61125983836000818110610d3757fe5b600154604080516370a0823160e01b815230600482015290516000926001600160a01b0316916370a08231916024808301926020929190829003018186803b1580156112a457600080fd5b505afa1580156112b8573d6000803e3d6000fd5b505050506040513d60208110156112ce57600080fd5b50516040805160208681028281018201909352868252929350611310929091879187918291850190849080828437600092019190915250309250611862915050565b600154604080516370a0823160e01b81523060048201529051600092610f249285926001600160a01b03909216916370a0823191602480820192602092909190829003018186803b158015610ef257600080fd5b6001546000906001600160a01b03168383838161137d57fe5b905060200201356001600160a01b03166001600160a01b0316146113d25760405162461bcd60e51b81526004018080602001828103825260228152602001806120586022913960400191505060405180910390fd5b348061140f5760405162461bcd60e51b815260040180806020018281038252602f815260200180611fe6602f913960400191505060405180910390fd5b600160009054906101000a90046001600160a01b03166001600160a01b031663d0e30db0826040518263ffffffff1660e01b81526004016000604051808303818588803b15801561145f57600080fd5b505af1158015611473573d6000803e3d6000fd5b50506001546002546001600160a01b03918216945063a9059cbb93506114a09250168787600081610d6e57fe5b836040518363ffffffff1660e01b815260040180836001600160a01b0316815260200182815260200192505050602060405180830381600087803b1580156114e757600080fd5b505af11580156114fb573d6000803e3d6000fd5b505050506040513d602081101561151157600080fd5b505161151957fe5b60008484600019810181811061152b57fe5b905060200201356001600160a01b03166001600160a01b03166370a08231306040518263ffffffff1660e01b815260040180826001600160a01b0316815260200191505060206040518083038186803b15801561158757600080fd5b505afa15801561159b573d6000803e3d6000fd5b505050506040513d60208110156115b157600080fd5b505160408051602087810282810182019093528782529293506115f3929091889188918291850190849080828437600092019190915250309250611862915050565b60006116098287876000198101818110610e9657fe5b905086811015610f655760405162461bcd60e51b8152600401808060200182810382526030815260200180611f766030913960400191505060405180910390fd5b60008060006116598585611c74565b604080516001600160601b0319606094851b811660208084019190915293851b81166034830152825160288184030181526048830184528051908501206001600160f81b031960688401529a90941b9093166069840152607d8301989098527f96e8ac4277198ff8b6f785478aa9a39f403cb768dd02cbee326c3e7da348845f609d808401919091528851808403909101815260bd909201909752805196019590952095945050505050565b604080516001600160a01b0385811660248301528481166044830152606480830185905283518084039091018152608490920183526020820180516001600160e01b03166323b872dd60e01b17815292518251600094606094938a169392918291908083835b6020831061178a5780518252601f19909201916020918201910161176b565b6001836020036101000a0380198251168184511680821785525050505050509050019150506000604051808303816000865af19150503d80600081146117ec576040519150601f19603f3d011682016040523d82523d6000602084013e6117f1565b606091505b509150915081801561181f57508051158061181f575080806020019051602081101561181c57600080fd5b50515b61185a5760405162461bcd60e51b815260040180806020018281038252602481526020018061209e6024913960400191505060405180910390fd5b505050505050565b60005b60018351038110156111d05760008084838151811061188057fe5b602002602001015185846001018151811061189757fe5b60200260200101519150915060006118af8383611c74565b506002546040805163e6a4390560e01b81526001600160a01b03878116600483015286811660248301529151939450600093919092169163e6a43905916044808301926020929190829003018186803b15801561190b57600080fd5b505afa15801561191f573d6000803e3d6000fd5b505050506040513d602081101561193557600080fd5b50516001600160a01b0316141561197d5760405162461bcd60e51b815260040180806020018281038252602481526020018061207a6024913960400191505060405180910390fd5b600254600090611997906001600160a01b0316858561164a565b9050600080600080846001600160a01b0316630902f1ac6040518163ffffffff1660e01b815260040160606040518083038186803b1580156119d857600080fd5b505afa1580156119ec573d6000803e3d6000fd5b505050506040513d6060811015611a0257600080fd5b5080516020909101516001600160701b0391821693501690506000806001600160a01b038a811690891614611a38578284611a3b565b83835b91509150611a90828b6001600160a01b03166370a082318a6040518263ffffffff1660e01b815260040180826001600160a01b0316815260200191505060206040518083038186803b158015610ef257600080fd5b9550611a9d868383611d52565b945050505050600080856001600160a01b0316886001600160a01b031614611ac757826000611acb565b6000835b91509150600060028c51038a10611ae2578a611b18565b611b18600260009054906101000a90046001600160a01b0316898e8d60020181518110611b0b57fe5b602002602001015161164a565b604080516000808252602082019283905263022c0d9f60e01b835260248201878152604483018790526001600160a01b038086166064850152608060848501908152845160a48601819052969750908c169563022c0d9f958a958a958a9591949193919260c486019290918190849084905b83811015611ba2578181015183820152602001611b8a565b50505050905090810190601f168015611bcf5780820380516001836020036101000a031916815260200191505b5095505050505050600060405180830381600087803b158015611bf157600080fd5b505af1158015611c05573d6000803e3d6000fd5b50506001909b019a506118659950505050505050505050565b80820382811115611c6e576040805162461bcd60e51b815260206004820152601560248201527464732d6d6174682d7375622d756e646572666c6f7760581b604482015290519081900360640190fd5b92915050565b600080826001600160a01b0316846001600160a01b03161415611cc85760405162461bcd60e51b8152600401808060200182810382526025815260200180611f036025913960400191505060405180910390fd5b826001600160a01b0316846001600160a01b031610611ce8578284611ceb565b83835b90925090506001600160a01b038216611d4b576040805162461bcd60e51b815260206004820152601e60248201527f556e697377617056324c6962726172793a205a45524f5f414444524553530000604482015290519081900360640190fd5b9250929050565b6000808411611d925760405162461bcd60e51b815260040180806020018281038252602b8152602001806120c2602b913960400191505060405180910390fd5b600083118015611da25750600082115b611ddd5760405162461bcd60e51b8152600401808060200182810382526028815260200180611f4e6028913960400191505060405180910390fd5b6000611deb856103e5611e2a565b90506000611df98285611e2a565b90506000611e1383611e0d886103e8611e2a565b90611e8d565b9050808281611e1e57fe5b04979650505050505050565b6000811580611e4557505080820282828281611e4257fe5b04145b611c6e576040805162461bcd60e51b815260206004820152601460248201527364732d6d6174682d6d756c2d6f766572666c6f7760601b604482015290519081900360640190fd5b80820182811015611c6e576040805162461bcd60e51b815260206004820152601460248201527364732d6d6174682d6164642d6f766572666c6f7760601b604482015290519081900360640190fdfe4f776e61626c653a206e6577206f776e657220697320746865207a65726f2061646472657373556e697377617056324c6962726172793a204944454e544943414c5f4144445245535345535465636843556e697377617050726f76696465723a20444541444c494e455f45585049524544556e697377617056324c6962726172793a20494e53554646494349454e545f4c49515549444954595465636843556e697377617050726f76696465723a20494e53554646494349454e545f4f55545055545f414d4f554e544f776e61626c653a2063616c6c6572206973206e6f7420746865206f776e65728be0079c531659141344cd1fd0a4f28419497f9722a3daafe3b4186f6b6457e05465636843556e697377617050726f76696465723a20494e53554646494349454e545f494e5055545f414d4f554e54ee3ef18b143a6b95bc67ea8bfb149a0796a19a353883d10b936ea762bd4455d55472616e7366657248656c7065723a204554485f5452414e534645525f4641494c45445465636843556e697377617050726f76696465723a20494e56414c49445f504154485465636843556e697377617050726f76696465723a20504149525f4e4f545f45584953545472616e7366657248656c7065723a205452414e534645525f46524f4d5f4641494c4544556e697377617056324c6962726172793a20494e53554646494349454e545f494e5055545f414d4f554e54a2646970667358221220a1723169d6bfdbe9c082aea264b8446f3ce6f591706fc347427b4d72efad8b5764736f6c634300060c00335465636843556e697377617050726f76696465723a205a45524f5f464143544f52595f414444524553535465636843556e697377617050726f76696465723a205a45524f5f53544f4147455f414444524553535465636843556e697377617050726f76696465723a205a45524f5f574554485f41444452455353",
  "immutableReferences": {},
  "source": "// SPDX-License-Identifier: GPL-3.0\n\npragma solidity =0.6.12;\n\nimport \"./utils/Ownable.sol\";\nimport \"./eth/interfaces/IUniswapV2Factory.sol\";\nimport \"./eth/libraries/UniswapV2Library.sol\";\nimport './libraries/TransferHelper.sol';\nimport \"./eth/interfaces/IWETH.sol\";\nimport \"./eth/interfaces/IERC20.sol\";\nimport \"./libraries/SafeMath.sol\";\nimport \"./libraries/Convert.sol\";\nimport \"./eth/interfaces/IStorage.sol\";\n\n\ncontract TechCUniswapProvider is Ownable {\n    using SafeMath for uint256;\n\n    event TechCSwapOperation (\n        uint256 amountIn,\n        uint256 amountOut,\n        address inputToken,\n        address outputToken \n    );\n\n\n    address public WETH;\n    address public uniswapFactory;\n    address public payment;\n\n    uint256 public providerFee = 1 * 10 ** 7;\n    uint256 public constant FEE_DENOMINATOR = 10 ** 10;\n\n    modifier ensure(uint deadline) {\n        require(deadline >= block.timestamp, 'TechCUniswapProvider: DEADLINE_EXPIRED');\n        _;\n    }\n\n    constructor (\n        address _weth,\n        address _factory,\n        address _storage\n    ) public {\n        require(_weth != address(0), \"TechCUniswapProvider: ZERO_WETH_ADDRESS\");\n        require(_factory != address(0), \"TechCUniswapProvider: ZERO_FACTORY_ADDRESS\");\n        require(_storage != address(0), \"TechCUniswapProvider: ZERO_STOAGE_ADDRESS\");\n\n\n        WETH = _weth;\n        uniswapFactory = _factory;\n        payment = _storage;\n    }\n\n\n    function swapTokensForETHSupportingFee(\n        uint amountIn,\n        uint swapAmountOutMin,\n        address[] calldata path,\n        address to,\n        uint deadline\n    ) external virtual  ensure(deadline) {\n        uint amountOut = _swapTokensForETHSupportingFee(amountIn, swapAmountOutMin, path);\n        IWETH(WETH).withdraw(amountOut);\n        emit TechCSwapOperation(amountIn, amountOut, path[0], path[1]);\n        TransferHelper.safeTransferETH(payment, amountOut);\n        IStorage(payment).addPartner(path[1], to, amountOut, msg.sender);\n    }\n       \n    \n\n    function _swapTokensForETHSupportingFee(\n        uint amountIn,\n        uint swapAmountOutMin,\n        address[] calldata path\n    ) internal virtual returns (uint) {\n        require(path[path.length - 1] == WETH, 'TechCUniswapProvider: INVALID_PATH');\n        TransferHelper.safeTransferFrom(\n            path[0], msg.sender, UniswapV2Library.pairFor(uniswapFactory, path[0], path[1]), amountIn\n        );\n        uint balanceBefore = IERC20(WETH).balanceOf(address(this));\n        _swap(path, address(this));\n        uint amountOut = IERC20(WETH).balanceOf(address(this)).sub(balanceBefore);\n        require(amountOut >= swapAmountOutMin, 'TechCUniswapProvider: INSUFFICIENT_OUTPUT_AMOUNT');\n        return amountOut;\n    }\n\n    function swapTokensForTokensSupportingFee(\n        uint amountIn,\n        uint swapAmountOutMin,\n        address[] calldata path,\n        address to,\n        uint deadline    \n        ) external virtual  ensure(deadline) {\n        uint amountOut = _swapTokensForTokensSupportingFee(amountIn, swapAmountOutMin, path);\n        emit TechCSwapOperation(amountIn, amountOut, path[0], path[1]);\n        TransferHelper.safeTransfer(path[path.length - 1], payment, amountOut);\n        IStorage(payment).addPartner(path[path.length - 1], to, amountOut, msg.sender);\n\n\n    }\n\n    function _swapTokensForTokensSupportingFee(\n        uint amountIn,\n        uint amountOutMin,\n        address[] calldata path\n    ) internal virtual returns (uint) {\n        TransferHelper.safeTransferFrom(\n            path[0], msg.sender, UniswapV2Library.pairFor(uniswapFactory, path[0], path[1]), amountIn\n        );\n        uint balanceBefore = IERC20(path[path.length - 1]).balanceOf(address(this));\n        _swap(path, address(this));\n        uint amountOut = IERC20(path[path.length - 1]).balanceOf(address(this)).sub(balanceBefore);\n        require(amountOut >= amountOutMin, 'TechCUniswapProvider: INSUFFICIENT_OUTPUT_AMOUNT');\n        return amountOut;\n    }\n\n    function swapETHForTokensSupportingFee(\n        uint amountOutMin,\n        address[] calldata path,\n        address to,\n        uint deadline\n    ) external virtual payable ensure(deadline) {\n        uint amountOut = _swapETHForTokensSupportingFee(amountOutMin, path);\n        emit TechCSwapOperation(msg.value, amountOut, path[0], path[1]);\n        TransferHelper.safeTransfer(path[path.length - 1], payment, amountOut);\n        IStorage(payment).addPartner(path[path.length - 1], to, amountOut, msg.sender);\n    }\n\n    function _swapETHForTokensSupportingFee(\n        uint amountOutMin,\n        address[] calldata path\n    ) internal virtual returns (uint) {\n        require(path[0] == WETH, 'TechCUniswapProvider: INVALID_PATH');\n        uint amountIn = msg.value;\n        require(amountIn > 0, 'TechCUniswapProvider: INSUFFICIENT_INPUT_AMOUNT');\n        IWETH(WETH).deposit{value: amountIn}();\n        assert(IWETH(WETH).transfer(UniswapV2Library.pairFor(uniswapFactory, path[0], path[1]), amountIn));\n        uint balanceBefore = IERC20(path[path.length - 1]).balanceOf(address(this));\n        _swap(path, address(this));\n        uint amountOut = IERC20(path[path.length - 1]).balanceOf(address(this)).sub(balanceBefore);\n        require(amountOut >= amountOutMin, 'TechCUniswapProvider: INSUFFICIENT_OUTPUT_AMOUNT');\n        return amountOut;\n    }\n\n    function _swap(address[] memory path, address _to) internal virtual {\n        for (uint i; i < path.length - 1; i++) {\n            (address input, address output) = (path[i], path[i + 1]);\n            (address token0,) = UniswapV2Library.sortTokens(input, output);\n            require(IUniswapV2Factory(uniswapFactory).getPair(input, output) != address(0), \"TechCUniswapProvider: PAIR_NOT_EXIST\");\n            IUniswapV2Pair pair = IUniswapV2Pair(UniswapV2Library.pairFor(uniswapFactory, input, output));\n            uint amountInput;\n            uint amountOutput;\n            {\n            (uint reserve0, uint reserve1,) = pair.getReserves();\n            (uint reserveInput, uint reserveOutput) = input == token0 ? (reserve0, reserve1) : (reserve1, reserve0);\n            amountInput = IERC20(input).balanceOf(address(pair)).sub(reserveInput);\n            amountOutput = UniswapV2Library.getAmountOut(amountInput, reserveInput, reserveOutput);\n            }\n            (uint amount0Out, uint amount1Out) = input == token0 ? (uint(0), amountOutput) : (amountOutput, uint(0));\n            address to = i < path.length - 2 ? UniswapV2Library.pairFor(uniswapFactory, output, path[i + 2]) : _to;\n            pair.swap(amount0Out, amount1Out, to, new bytes(0));\n        }\n    }\n\n    receive() external payable { }\n\n    function withdraw(address token) external onlyOwner{\n        if (token == WETH) {\n            uint256 wethBalance = IERC20(token).balanceOf(address(this));\n            if (wethBalance > 0) {\n                IWETH(WETH).withdraw(wethBalance);\n            }\n            TransferHelper.safeTransferETH(owner(), address(this).balance);\n        } else {\n            TransferHelper.safeTransfer(token, owner(), IERC20(token).balanceOf(address(this)));\n        }\n    }\n\n    function setFee(uint _fee) external onlyOwner {\n        providerFee = _fee;\n    }\n\n    function setUniswapFactory(address _factory) external onlyOwner {\n        uniswapFactory = _factory;\n    }\n}",
  "sourcePath": "/home/nurdaulet/Desktop/techcrypth/contracts/TechCUniswapProvider.sol",
  "compiler": {
    "name": "solc",
    "version": "0.6.12+commit.27d51765.Emscripten.clang"
  },
  "schemaVersion": "3.4.4",
  "updatedAt": "2022-06-19T05:56:26.460Z",
  "networkType": "ethereum",
  "devdoc": {
    "kind": "dev",
    "methods": {
      "owner()": {
        "details": "Returns the address of the current owner."
      },
      "renounceOwnership()": {
        "details": "Leaves the contract without owner. It will not be possible to call `onlyOwner` functions anymore. Can only be called by the current owner. NOTE: Renouncing ownership will leave the contract without an owner, thereby removing any functionality that is only available to the owner."
      },
      "transferOwnership(address)": {
        "details": "Transfers ownership of the contract to a new account (`newOwner`). Can only be called by the current owner."
      }
    },
    "version": 1
  },
  "userdoc": {
    "kind": "user",
    "methods": {},
    "version": 1
  }
}